{
  "contractName": "Xanta",
  "abi": [
    {
      "inputs": [],
      "stateMutability": "nonpayable",
      "type": "constructor"
    },
    {
      "anonymous": false,
      "inputs": [
        {
          "indexed": true,
          "internalType": "address",
          "name": "_from",
          "type": "address"
        },
        {
          "indexed": true,
          "internalType": "address",
          "name": "_to",
          "type": "address"
        },
        {
          "indexed": false,
          "internalType": "uint256",
          "name": "_value",
          "type": "uint256"
        }
      ],
      "name": "Transfer",
      "type": "event"
    },
    {
      "inputs": [
        {
          "internalType": "address",
          "name": "",
          "type": "address"
        }
      ],
      "name": "balanceOf",
      "outputs": [
        {
          "internalType": "uint256",
          "name": "",
          "type": "uint256"
        }
      ],
      "stateMutability": "view",
      "type": "function"
    },
    {
      "inputs": [],
      "name": "decimals",
      "outputs": [
        {
          "internalType": "uint256",
          "name": "",
          "type": "uint256"
        }
      ],
      "stateMutability": "view",
      "type": "function"
    },
    {
      "inputs": [],
      "name": "name",
      "outputs": [
        {
          "internalType": "string",
          "name": "",
          "type": "string"
        }
      ],
      "stateMutability": "view",
      "type": "function"
    },
    {
      "inputs": [],
      "name": "symbole",
      "outputs": [
        {
          "internalType": "string",
          "name": "",
          "type": "string"
        }
      ],
      "stateMutability": "view",
      "type": "function"
    },
    {
      "inputs": [],
      "name": "totalSupply",
      "outputs": [
        {
          "internalType": "uint256",
          "name": "",
          "type": "uint256"
        }
      ],
      "stateMutability": "view",
      "type": "function"
    },
    {
      "inputs": [
        {
          "internalType": "address",
          "name": "_to",
          "type": "address"
        },
        {
          "internalType": "uint256",
          "name": "_value",
          "type": "uint256"
        }
      ],
      "name": "transfer",
      "outputs": [
        {
          "internalType": "bool",
          "name": "success",
          "type": "bool"
        }
      ],
      "stateMutability": "nonpayable",
      "type": "function"
    }
  ],
  "bytecode": "0x60806040526040518060400160405280600581526020017f58616e7461000000000000000000000000000000000000000000000000000000815250600090805190602001906200005192919062000187565b506040518060400160405280600381526020017f584e540000000000000000000000000000000000000000000000000000000000815250600190805190602001906200009f92919062000187565b506005600255348015620000b257600080fd5b5033600560006101000a81548173ffffffffffffffffffffffffffffffffffffffff021916908373ffffffffffffffffffffffffffffffffffffffff160217905550600254600a620001059190620003c4565b606462000113919062000415565b60038190555060035460046000600560009054906101000a900473ffffffffffffffffffffffffffffffffffffffff1673ffffffffffffffffffffffffffffffffffffffff1673ffffffffffffffffffffffffffffffffffffffff16815260200190815260200160002081905550620004da565b8280546200019590620004a5565b90600052602060002090601f016020900481019282620001b9576000855562000205565b82601f10620001d457805160ff191683800117855562000205565b8280016001018555821562000205579182015b8281111562000204578251825591602001919060010190620001e7565b5b50905062000214919062000218565b5090565b5b808211156200023357600081600090555060010162000219565b5090565b7f4e487b7100000000000000000000000000000000000000000000000000000000600052601160045260246000fd5b60008160011c9050919050565b6000808291508390505b6001851115620002c5578086048111156200029d576200029c62000237565b5b6001851615620002ad5780820291505b8081029050620002bd8562000266565b94506200027d565b94509492505050565b600082620002e05760019050620003b3565b81620002f05760009050620003b3565b816001811462000309576002811462000314576200034a565b6001915050620003b3565b60ff84111562000329576200032862000237565b5b8360020a91508482111562000343576200034262000237565b5b50620003b3565b5060208310610133831016604e8410600b8410161715620003845782820a9050838111156200037e576200037d62000237565b5b620003b3565b62000393848484600162000273565b92509050818404811115620003ad57620003ac62000237565b5b81810290505b9392505050565b6000819050919050565b6000620003d182620003ba565b9150620003de83620003ba565b92506200040d7fffffffffffffffffffffffffffffffffffffffffffffffffffffffffffffffff8484620002ce565b905092915050565b60006200042282620003ba565b91506200042f83620003ba565b9250817fffffffffffffffffffffffffffffffffffffffffffffffffffffffffffffffff04831182151516156200046b576200046a62000237565b5b828202905092915050565b7f4e487b7100000000000000000000000000000000000000000000000000000000600052602260045260246000fd5b60006002820490506001821680620004be57607f821691505b602082108103620004d457620004d362000476565b5b50919050565b6108c280620004ea6000396000f3fe608060405234801561001057600080fd5b50600436106100625760003560e01c806306fdde031461006757806318160ddd14610085578063313ce567146100a357806370a08231146100c1578063a9059cbb146100f1578063ed6968e714610121575b600080fd5b61006f61013f565b60405161007c91906105eb565b60405180910390f35b61008d6101cd565b60405161009a9190610626565b60405180910390f35b6100ab6101d3565b6040516100b89190610626565b60405180910390f35b6100db60048036038101906100d691906106a4565b6101d9565b6040516100e89190610626565b60405180910390f35b61010b600480360381019061010691906106fd565b6101f1565b6040516101189190610758565b60405180910390f35b610129610498565b60405161013691906105eb565b60405180910390f35b6000805461014c906107a2565b80601f0160208091040260200160405190810160405280929190818152602001828054610178906107a2565b80156101c55780601f1061019a576101008083540402835291602001916101c5565b820191906000526020600020905b8154815290600101906020018083116101a857829003601f168201915b505050505081565b60035481565b60025481565b60046020528060005260406000206000915090505481565b60008073ffffffffffffffffffffffffffffffffffffffff168373ffffffffffffffffffffffffffffffffffffffff161415801561029057508160046000600560009054906101000a900473ffffffffffffffffffffffffffffffffffffffff1673ffffffffffffffffffffffffffffffffffffffff1673ffffffffffffffffffffffffffffffffffffffff1681526020019081526020016000205410155b61029957600080fd5b61030d8260046000600560009054906101000a900473ffffffffffffffffffffffffffffffffffffffff1673ffffffffffffffffffffffffffffffffffffffff1673ffffffffffffffffffffffffffffffffffffffff1681526020019081526020016000205461052690919063ffffffff16565b60046000600560009054906101000a900473ffffffffffffffffffffffffffffffffffffffff1673ffffffffffffffffffffffffffffffffffffffff1673ffffffffffffffffffffffffffffffffffffffff168152602001908152602001600020819055506103c482600460008673ffffffffffffffffffffffffffffffffffffffff1673ffffffffffffffffffffffffffffffffffffffff1681526020019081526020016000205461053c90919063ffffffff16565b600460008573ffffffffffffffffffffffffffffffffffffffff1673ffffffffffffffffffffffffffffffffffffffff16815260200190815260200160002081905550600190508273ffffffffffffffffffffffffffffffffffffffff16600560009054906101000a900473ffffffffffffffffffffffffffffffffffffffff1673ffffffffffffffffffffffffffffffffffffffff167fddf252ad1be2c89b69c2b068fc378daa952ba7f163c4a11628f55a4df523b3ef8460405161048a9190610626565b60405180910390a392915050565b600180546104a5906107a2565b80601f01602080910402602001604051908101604052809291908181526020018280546104d1906107a2565b801561051e5780601f106104f35761010080835404028352916020019161051e565b820191906000526020600020905b81548152906001019060200180831161050157829003601f168201915b505050505081565b600081836105349190610802565b905092915050565b6000818361054a9190610836565b905092915050565b600081519050919050565b600082825260208201905092915050565b60005b8381101561058c578082015181840152602081019050610571565b8381111561059b576000848401525b50505050565b6000601f19601f8301169050919050565b60006105bd82610552565b6105c7818561055d565b93506105d781856020860161056e565b6105e0816105a1565b840191505092915050565b6000602082019050818103600083015261060581846105b2565b905092915050565b6000819050919050565b6106208161060d565b82525050565b600060208201905061063b6000830184610617565b92915050565b600080fd5b600073ffffffffffffffffffffffffffffffffffffffff82169050919050565b600061067182610646565b9050919050565b61068181610666565b811461068c57600080fd5b50565b60008135905061069e81610678565b92915050565b6000602082840312156106ba576106b9610641565b5b60006106c88482850161068f565b91505092915050565b6106da8161060d565b81146106e557600080fd5b50565b6000813590506106f7816106d1565b92915050565b6000806040838503121561071457610713610641565b5b60006107228582860161068f565b9250506020610733858286016106e8565b9150509250929050565b60008115159050919050565b6107528161073d565b82525050565b600060208201905061076d6000830184610749565b92915050565b7f4e487b7100000000000000000000000000000000000000000000000000000000600052602260045260246000fd5b600060028204905060018216806107ba57607f821691505b6020821081036107cd576107cc610773565b5b50919050565b7f4e487b7100000000000000000000000000000000000000000000000000000000600052601160045260246000fd5b600061080d8261060d565b91506108188361060d565b92508282101561082b5761082a6107d3565b5b828203905092915050565b60006108418261060d565b915061084c8361060d565b9250827fffffffffffffffffffffffffffffffffffffffffffffffffffffffffffffffff03821115610881576108806107d3565b5b82820190509291505056fea26469706673582212200dde537be87c6fac43046e37d960f0916b5b003dc8dec8e00f89f6bc9b3bca3a64736f6c634300080d0033",
  "immutableReferences": {},
  "source": "// SPDX-License-Identifier: MIT\n// Tells the Solidity compiler to compile only from v0.8.13 to v0.9.0\npragma solidity ^0.8.13;\nimport \"@openzeppelin/contracts/utils/math/SafeMath.sol\";\n\n\n\n// This is just a simple example of a coin-like contract.\n// It is not ERC20 compatible and cannot be expected to talk to other\n// coin/token contracts.\n\ncontract Xanta {\nusing SafeMath for uint;\nstring public name = \"Xanta\"; \nstring public symbole = \"XNT\"; \nuint256 public decimals = 5; \nuint256 public totalSupply;\nmapping(address => uint256) public balanceOf;\naddress private owner;\n\nconstructor(){\n    owner = msg.sender;\n    totalSupply = (100 * (10 ** decimals));\n    balanceOf[owner] = totalSupply;\n}\nevent Transfer(address indexed _from, address indexed _to, uint256 _value);\nfunction transfer(address _to, uint256 _value) public returns(bool success){\n    require(_to != address(0) && balanceOf[owner] >= _value);\n    balanceOf[owner] = balanceOf[owner].sub(_value);\n    balanceOf[_to] = balanceOf[_to].add(_value);\n    success = true;\n    emit Transfer(owner,_to,_value);\n}\n\n\n\n\n}\n\n",
  "sourcePath": "/home/punk/Desktop/XantaCoiin/contracts/Xanta.sol",
  "compiler": {
    "name": "solc",
    "version": "0.8.13+commit.abaa5c0e.Emscripten.clang"
  },
  "schemaVersion": "3.4.15",
  "updatedAt": "2023-09-02T04:14:48.078Z",
  "devdoc": {
    "kind": "dev",
    "methods": {},
    "version": 1
  },
  "userdoc": {
    "kind": "user",
    "methods": {},
    "version": 1
  }
}